S00B00004D43552E7372656334
S113000055C0000071C000006FC000006DC000004A
S11300106BC0000069C0000067C0000065C000003C
S113002063C0000061C000005FC000005DC000004C
S11300305BC0000059C0000057C00000B3C30000FB
S113004053C0000051C000004FC000004DC000006C
S11300504BC0000049C0000047C0000045C000007C
S113006043C0000041C0000032C40000AFC500001E
S1130070D4C5000039C0000037C0000035C00000FE
S113008033C0000031C000002FC000008503890385
S11300908D039103950399039D03A103A503A9036C
S11300A0AD03B103B503C403C803CC0311241FBEBD
S11300B0CFEFD0E1DEBFCDBF11E0A0E0B1E0E2E9D7
S11300C0F5E100E00BBF02C007900D92A238B10722
S11300D0D9F721E0A2E8B1E001C01D92A739B20727
S11300E0E1F742D60C94C70A8BCFE5E6F0E09081A5
S11300F09460908390819D7F9083908191609083A0
S113010096EF9A95F1F78BBB86EF8A95F1F780818C
S11301108E7F80830895E5E6F0E090819B7F908355
S113012090819D7F908390819160908396EF9A95C2
S1130130F1F78BBB86EF8A95F1F780818E7F808300
S11301400895D3DF86EF8A95F1F70895CF93DF936F
S1130150EC0102C0F6DF219688818111FBCFDF918B
S1130160CF91089590E4899F600D1124862F8068B3
S1130170D2CF089590E0880F991F860F911D880FA4
S1130180991F840F911D880F880F8062C4DF86E653
S11301909EE00197F1F70000089590E0880F991F01
S11301A0860F911D880F880F8061B5DF86EF8A95D1
S11301B0F1F70895282F30E0220F331F260F311D49
S11301C0220F822F840F8860A6DF86EF8A95F1F7CD
S11301D00895880F860F84609EDF86EF8A95F1F775
S11301E0089581E098DF8CEC9CE10197F1F700C061
S11301F00000089580E38FDF8AE09BE30197F1F725
S113020080E389DF80E791E00197F1F700C080E3A4
S113021082DF80E791E00197F1F700C0089520E0C4
S113022030E005C045E04A95F1F72F5F3F4F2817AE
S11302303907C0F30895CF92DF92EF92FF920F93A4
S11302401F93CF93DF938C0180E197E2B80185D6A9
S11302507B01C12CD12C0FC0C5E6D0E08881806120
S11302608883C801DCDF88818F7E8883C801D7DF5B
S11302708FEFC81AD80ACE14DF0474F3E5E6F0E071
S1130280808180618083DF91CF911F910F91FF90D6
S1130290EF90DF90CF9008950F931F93CF93DF9348
S11302A0482F8091550181114DC0E0E4F1E0828135
S11302B09381EC01C058DF4F008111819E01369576
S11302C027953695279536952795A5ECB0E261D606
S11302D0929582958F7089279F7089279801280F9E
S11302E0391F31832083A8EEB3E08A9FB0018B9F2E
S11302F0700D9A9F700D1124CE01861B970B93836A
S11303008283642F70E0FB013296EE0FFF1FE05CE6
S1130310FE4F0190F081E02DE217F30758F4FB0142
S11303203496EE0FFF1FE05CFE4F60817181681709
S1130330790728F0309385002093840003C081E07E
S11303408093550180915501813009F05FC08091FF
S11303504201909143018038910560F4E0E4F1E0BA
S113036020813181215031093183208388519C4F70
S113037093838283E0E4F1E022813381E901C05870
S1130380D109008111819E013695279536952795CF
S113039036952795A5ECB0E2FCD5929582958F70A1
S11303A089279F708927B801680F791F718360833B
S11303B0A8EEB3E08A9F90018B9F300D9A9F300D79
S11303C01124CE01821B930B9C0193838283842F7F
S11303D090E0FC013696EE0FFF1FE05CFE4F40817B
S11303E051816417750758F4FC013896EE0FFF1F0E
S11303F0E05CFE4F808191812817390728F07093C3
S113040085006093840002C010925501DF91CF9162
S11304101F910F91089580915401833049F4809184
S11304204001909141019093850080938400089548
S1130430823019F481E030CF0895813011F480E0E6
S11304402BCF089580915401833021F481E080936F
S113045054010895813021F482E080935401089579
S1130460823019F483E0809354010895CF93DF938D
S1130470C6E5D1E088811F928F938BE591E09F932D
S11304808F9381E091E09F938F93A6D588810F90FD
S11304900F900F900F900F900F90813051F028F033
S11304A0823059F0833069F00FC085B58F7D85BDEA
S11304B00BC08091580183BD07C08091590183BD51
S11304C003C080915A0183BDDF91CF91089580913B
S11304D05601813069F028F0823071F0833081F068
S11304E0089585B5806285BD81E0809356010895A5
S11304F082E080935601089583E080935601089525
S113050081E0809356010895EF92FF920F931F9319
S1130510CF93DF93C2E8D1E0188619861A861B862A
S11305201C861D861E861F860F2EF6E5EF2EF1E033
S1130530FF2EF02DF701108285B58F7D85BD00E477
S113054011E083E0F801848B158A65DFF801848962
S11305501F928F9386E691E09F938F9389E091E0B9
S11305609F938F9339D5F70180811F928F938BE5E9
S113057091E09F938F9381E091E09F938F932CD58B
S11305808A811F928F9380E791E09F938F9389E2F2
S113059091E09F938F9320D510922F0188EF809341
S11305A0920180919601877F80688F7E8093960167
S11305B08BE0809395018DB79EB742960FB6F89461
S11305C09EBF0FBE8DBFDF91CF911F910F91FF9002
S11305D0EF90089520E08EEF90E033C085BB31E3C7
S11305E03A95F1F7000033B3307F39F186E69EE0A7
S11305F00197F1F7000083B3807F803271F018F423
S1130600803131F022C0803469F0803881F01DC01F
S1130610822F880F880F8F5F0895822F880F880F8D
S11306208E5F0895822F880F880F8D5F0895822F23
S113063090E00196880F880F0895880F991F8160B4
S11306402F5F243058F280E0089581E10895CF931C
S1130650DF9380913301843078F482E890E0EBDD1D
S1130660CFE2D1E0EC81F0E08B81E15DFE4F858348
S113067068DD8C818F5F8C83809133018430C9F570
S1130680EFE2F1E09185858198131CC09285868103
S1130690981318C093858781981314C09485808516
S11306A0981310C088EF80939201809196018F7BFC
S11306B080939601109288018091950180628093C5
S11306C0950109C080E18093920180919601806434
S11306D08F7D8093960140E060E081E06BDD81DDF9
S11306E0EFE2F1E010828AE2858386838783808744
S11306F01482DF91CF91089501978031910508F01C
S11307004EC08A5B9F4FFC013BC481E3809332015E
S113071046C082E38093320142C083E38093320176
S11307203EC08AE0809332013AC084E38093320170
S113073036C085E38093320132C086E38093320170
S11307402EC08BE0809332012AC087E3809332016C
S113075026C088E38093320122C089E3809332016A
S11307601EC08CE0809332011AC0EFE2F1E08AE20D
S11307708383858386838783808714828091950110
S11307808064809395010BC080E38093320107C09D
S113079082E28093320103C08DE080933201809124
S11307A0320108951F920F920FB60F9211240BB6C7
S11307B00F922F933F934F935F936F937F938F93F6
S11307C09F93AF93BF93EF93FF93E2E8F1E08081AF
S11307D08F5F80839091960194FF12C095819F5FF3
S11307E09583983C69F4909100019B3221F49DE239
S11307F09093000103C09BE2909300011092870143
S11308009091950194FF0FC0E2E8F1E096819F5F1B
S11308109683943641F410928801909195019F7EBD
S11308209160909395019091950195FF14C0E2E831
S1130830F1E096819F5F9683943669F41092880163
S113084090919501209196012F7D209396019F7D93
S1130850916090939501843639F5109282018091CC
S1130860950188230CF580918401811109C0B9DCBC
S1130870809196018F778F7E8093960145DE14C018
S11308808150809384011F928F9380E791E09F931E
S11308908F9389E291E09F938F939ED30F900F9053
S11308A00F900F900F900F90FF91EF91BF91AF9128
S11308B09F918F917F916F915F914F913F912F9174
S11308C00F900BBE0F900FBE0F901F9018951F92A4
S11308D00F920FB60F9211240BB60F922F933F93E2
S11308E04F935F936F937F938F939F93AF93BF9334
S11308F0CF93DF93EF93FF9380B3E2E9F1E090812C
S1130900887F80958923818392819111A6C0882351
S113091009F4A3C082E890E08EDC9091960191FFE7
S113092006C0892F8D7F8460809396013AC180919F
S11309309301803291F130F4883009F43FC0803162
S1130940B9F186C0803401F1803809F081C099235F
S113095034F4809196018F7780618093960172DDE3
S1130960809154011F928F9386E691E09F938F9319
S113097089E091E09F938F932FD30F900F900F9066
S11309800F900F900F9064C02CDC809196018F77AC
S11309908F7E80939601B8DD5BC0992334F48091F7
S11309A096018F7780618093960191DD5FDD50C061
S11309B0E2E8F1E0138281E087834AC0E2E8F1E0F3
S11309C0138281E0878393FD0CC080919601886037
S11309D0809396018091950180688093950110928F
S11309E08201C2E8D1E08A818B5F8A831F928F9350
S11309F080E791E09F938F9389E291E09F938F9397
S1130A00EBD28A810F900F900F900F900F900F9060
S1130A108A35F0F0109284011F921F9280E791E0D2
S1130A209F938F9389E291E09F938F93D5D2809186
S1130A309601877F80939601809195018F778160DD
S1130A40809395010F900F900F900F900F900F903F
S1130A50E2E9F1E081818283A4C0891398C08823EC
S1130A6009F495C0803109F04FC09091890191300B
S1130A7029F4E2E8F1E093819F5F938390918501EB
S1130A80923331F4E2E8F1E0138294819F5F94831E
S1130A90909186019330C8F09091960196FD15C00F
S1130AA090E190939201E2E8F1E0138214821782BC
S1130AB09091960190649F7D9093960190919501F9
S1130AC090619F79916090939501909186019A30FD
S1130AD0D8F09091960196FF17C01092920190EF72
S1130AE090932F01E2E8F1E013821482178290912F
S1130AF096019F7B906290939601909195019F7EC1
S1130B0090649F7D90939501883009F04AC080914C
S1130B108901813029F4E2E8F1E083818F5F8383E6
S1130B2080918501823331F4E2E8F1E0138284811B
S1130B308F5F848380918601833098F18091950141
S1130B408F7780939501E2E8F1E013821482178293
S1130B50128211821F921F9280E791E09F938F93DC
S1130B6089E291E09F938F9337D280919601877F9A
S1130B7080939601809195018F7781608093950190
S1130B800F900F900F900F900F900F900AC0992321
S1130B9041F0811106C0E2E8F1E01382178210925D
S1130BA09401FF91EF91DF91CF91BF91AF919F910C
S1130BB08F917F916F915F914F913F912F910F9002
S1130BC00BBE0F900FBE0F901F9018951F920F929F
S1130BD00FB60F9211240BB60F922F933F934F939E
S1130BE05F936F937F938F939F93AF93BF93EF9391
S1130BF0FF9311DCFF91EF91BF91AF919F918F9182
S1130C007F916F915F914F913F912F910F900BBE08
S1130C100F900FBE0F901F9018951F920F920FB652
S1130C200F9211240BB60F922F933F934F935F9320
S1130C306F937F938F939F93AF93BF93EF93FF93A0
S1130C4080912F01803F91F4C5DC8093300188238B
S1130C5049F090913101911105C090E04DDD8093F0
S1130C603201F5DCEFE2F1E081818283FF91EF91C3
S1130C70BF91AF919F918F917F916F915F914F91B0
S1130C803F912F910F900BBE0F900FBE0F901F90AE
S1130C9018958FE083BF8FE881BF87B7826087BFD5
S1130CA008958AE485BD88E483BD089583E0809334
S1130CB08B008CE180938A008FE794E09093870007
S1130CC08093860085E590E090938500809384006E
S1130CD081ED93E09093830080938200EDE7F0E050
S1130CE080818A6180830895D4DFDBDFDFDF78943D
S1130CF008958FEF8ABB80E887BB8FE084BB11BA6D
S1130D0080E182B997E1909364008093650008952F
S1130D1061E080E027DA81E091E018DA69E080E0C0
S1130D2021DA89E091E012CA08958091960186FF44
S1130D3006C061E081E016DA80E191E007DA809193
S1130D409501882334F469E081E00CDA89E291E0CA
S1130D50FDD98091950181FF06C06FE081E002DA40
S1130D6080910001EEC9089580919601811107C018
S1130D708160809396011092920110922F018091CC
S1130D80960180FF0FC0B5DF8FEF97ED0197F1F764
S1130D9000C000002FDAA8DF809196018E7F826068
S1130DA0809396018091960181FF5AC040E061E0F2
S1130DB081E0E0D940E060E080E0FCD912DA60E054
S1130DC081E007DAEBE8F0E0808180628083C6E5A9
S1130DD0D1E01882E0E4F1E083E0848B158A97E0A7
S1130DE0EAE7F1E0A0E1B1E001900D929A95E1F714
S1130DF099E0E8E7F1E0A7E1B1E001900D929A955E
S1130E00E1F71F928F9386E691E09F938F9389E099
S1130E1091E09F938F93E0D088811F928F938BE50D
S1130E2091E09F938F9381E091E09F938F93D4D02F
S1130E30809184011F928F9380E791E09F938F9319
S1130E4089E291E09F938F93C7D088EB80939201BE
S1130E508DB79EB742960FB6F8949EBF0FBE8DBF56
S1130E608091950180FF06C0BCD9809195018E7F49
S1130E70809395018091960182FF13C08091950122
S1130E80846088608093950140E060E081E092D9BD
S1130E90809196018B7F80688093960188EF809380
S1130EA0920180919601982F9079D1F284FF07C026
S1130EB09091950191FD03C09260909395018823D0
S1130EC02CF4909195019D7F9093950190919501BB
S1130ED094FD06C085FD04C095FD02C019DF25DF21
S1130EE08091960186FF0AC08091950184FF06C017
S1130EF065E081E037D980E191E028D980919601BD
S1130F0085FFAECF8091950186FF1CC040E061E073
S1130F1081E050D966D964E081E024D980E291E08F
S1130F2015D960E080E039D960E080E036D960E02E
S1130F3080E033D960E080E030D9809195018F7BE7
S1130F40809395018091950185FF8ACF64E081E0CB
S1130F5009D987E191E0FAD883CF97FB072E16F4DD
S1130F60009406D077FD08D023D007FC05D03EF4CA
S1130F70909581959F4F0895709561957F4F089541
S1130F80EE0FFF1F0024001C0BBE0790F691E02D0E
S1130F900994A29FB001B39FC001A39F700D811D4E
S1130FA01124911DB29F700D811D1124911D08956E
S1130FB0AA1BBB1B51E107C0AA1FBB1FA617B7077B
S1130FC010F0A61BB70B881F991F5A95A9F7809597
S1130FD09095BC01CD0108950F931F93CF93DF9398
S1130FE0CDB7DEB72E970FB6F894DEBF0FBECDBFD8
S1130FF00D891E8986E08C831A8309838FEF9FE70E
S11310009E838D83AE01475E5F4F6F89788DCE01DD
S1131010019610D0EF81F885E00FF11F10822E9613
S11310200FB6F894DEBF0FBECDBFDF91CF911F91F5
S11310300F9108952F923F924F925F926F927F92F9
S11310408F929F92AF92BF92CF92DF92EF92FF92D4
S11310500F931F93CF93DF93CDB7DEB72B970FB6C4
S1131060F894DEBF0FBECDBF6C017B018A01FC0189
S113107017821682838181FFBFC1CE0101963C0194
S1131080F6019381F70193FD859193FF81917F018F
S1131090882309F4ADC1853239F493FD859193FF1A
S11310A081917F01853221F4B60190E0D6D1E8CF59
S11310B0912C212C312CFFE1F315D8F08B3279F0EF
S11310C038F4803279F08332A1F4232D20611DC0DD
S11310D08D3261F0803369F4232D216016C0832D95
S11310E08260382EE32DE4603E2E2AC0F32DF86092
S11310F01DC037FC2DC020ED280F2A3040F08E3261
S1131100B9F436FC75C1232D2064322E19C036FE85
S113111006C08AE0989E200D1124922E11C0EAE0A8
S11311202E9E200D1124222EF32DF0623F2E08C096
S11311308C3621F4832D8068382E02C0883641F421
S1131140F70193FD859193FF81917F018111B3CFC5
S1131150982F9F7D9554933028F40C5F1F4F9FE385
S113116099830DC0833631F0833771F0833509F0EC
S113117055C020C0F801808189830E5F1F4F8824E9
S11311808394912C530112C02801F2E04F0E511C9C
S1131190F801A080B18036FE03C0692D70E002C062
S11311A06FEF7FEFC5014ED14C018201F32DFF7724
S11311B03F2E15C0280122E0420E511CF801A080E8
S11311C0B18036FE03C0692D70E002C06FEF7FEF7F
S11311D0C5012DD14C01F32DF0683F2E820133FC63
S11311E019C0822D90E088169906A0F4B60180E219
S11311F090E033D12A94F5CFF50137FC859137FE81
S113120081915F01B60190E028D121102A9421E058
S1131210821A91088114910479F7E1C0843611F09F
S1131220893639F5F80137FE07C060817181828102
S113123093810C5F1F4F08C060817181072E000CE1
S1131240880B990B0E5F1F4FF32DFF763F2E97FFF0
S113125009C090958095709561957F4F8F4F9F4FF2
S1131260F0683F2E2AE030E0A30133D1882E86189F
S113127044C0853731F4232D2F7EB22E2AE030E08E
S113128025C0932D997FB92E8F36C1F018F4883577
S113129079F0AEC0803719F0883721F0A9C0E92F62
S11312A0E061BE2EB4FE0DC0FB2DF460BF2E09C05C
S11312B034FE0AC0292F2660B22E06C028E030E092
S11312C005C020E130E002C020E132E0F801B7FEC1
S11312D007C060817181828193810C5F1F4F06C0BA
S11312E06081718180E090E00E5F1F4FA301F1D017
S11312F0882E8618FB2DFF773F2E36FE0DC0232D3A
S11313002E7FA22E891458F434FE0BC032FC09C07F
S1131310832D8E7EA82E05C0B82CA32C03C0B82C18
S113132001C0B92CA4FE0FC0FE01E80DF11D80819F
S1131330803321F49A2D997EA92E09C0A2FE06C0FD
S1131340B394B39404C08A2D867809F0B394A3FCB3
S113135010C0A0FE06C0B21480F4280C922C9B1876
S11313600DC0B21458F4B60180E290E076D0B39484
S1131370F8CFB21418F42B1802C0982C212CA4FE18
S11313800FC0B60180E390E068D0A2FE16C0A1FCB5
S113139003C088E790E002C088E590E0B6010CC085
S11313A08A2D867851F0A1FE02C08BE201C080E252
S11313B0A7FC8DE2B60190E050D0891430F4B60158
S11313C080E390E04AD09A94F8CF8A94F301E80D30
S11313D0F11D8081B60190E040D08110F6CF22202B
S11313E009F44ECEB60180E290E037D02A94F7CFCC
S11313F0F6018681978102C08FEF9FEF2B960FB67F
S1131400F894DEBF0FBECDBFDF91CF911F910F9136
S1131410FF90EF90DF90CF90BF90AF909F908F9010
S11314207F906F905F904F903F902F900895FC01B4
S11314300590615070400110D8F7809590958E0FFB
S11314409F1F0895FC016150704001900110D8F76E
S1131450809590958E0F9F1F08950F931F93CF93A0
S1131460DF93FB01238121FD03C08FEF9FEF2CC08D
S113147022FF16C0468157812481358142175307C4
S113148044F4A081B1819D012F5F3F4F31832083BC
S11314908C93268137812F5F3F4F3783268314C077
S11314A08B01EC01FB010084F185E02D0995892B6A
S11314B0E1F6D80116968D919C911797019617968F
S11314C09C938E931697CE01DF91CF911F910F912C
S11314D00895FA01AA27283051F1203181F1E894C6
S11314E06F936E7F6E5F7F4F8F4F9F4FAF4FB1E013
S11314F03ED0B4E03CD0670F781F891F9A1FA11D0E
S1131500680F791F8A1F911DA11D6A0F711D811D0E
S1131510911DA11D20D009F468943F912AE0269FD3
S113152011243019305D3193DEF6CF010895462F32
S11315304770405D4193B3E00FD0C9F7F6CF462F13
S11315404F70405D4A3318F0495D31FD405241937C
S113155002D0A9F7EACFB4E0A69597958795779539
S11315606795BA95C9F700976105710508959B01C0
S1131570AC010A2E06945795479537952795BA9549
S1131580C9F7620F731F841F951FA01D0895F89457
S1051590FFCF87
S11315922B53504545443A40004D4F44453A2400AC
S11315A24C4F434B454400554E4C4F434B4544002E
S11315B24B45593A2A2A2A2A0025257365630000D5
S11315C2000000002A2A2A2A323030350E0D0B0779
S11315D2550090018F0073000000C8001B00380002
S11315E220035802030000013F7FFF535045454446
S11315F23A25303164004D4F44453A253031640078
S11316022530326473656300554E4C4F434B454459
S10516120000D2
S9030000FC
